:100000000C9462000C948A000C948A000C948A0070
:100010000C948A000C948A000C948A000C948A0038
:100020000C948A000C948A000C948A000C948A0028
:100030000C948A000C948A000C948A000C948A0018
:100040000C9480030C948A000C94F0030C94CA0363
:100050000C948A000C948A000C948A000C948A00F8
:100060000C948A000C948A000000000024002700F1
:100070002A0000000000250028002B0000000000DE
:1000800023002600290004040404040404040202DA
:100090000202020203030303030301020408102007
:1000A0004080010204081020010204081020000012
:1000B0000008000201000003040700000000000027
:1000C0000000BD0611241FBECFEFD8E0DEBFCDBFBC
:1000D00011E0A0E0B1E0E2E3FEE002C005900D9285
:1000E000A238B107D9F722E0A2E8B1E001C01D9221
:1000F000A63AB207E1F710E0C2E6D0E004C02197CB
:10010000FE010E940C07C136D107C9F70E942204E4
:100110000C9417070C940000833081F028F4813090
:1001200099F08230A1F008958730A9F08830B9F0B5
:100130008430D1F4809180008F7D03C08091800055
:100140008F7780938000089584B58F7702C084B53F
:100150008F7D84BD08958091B0008F7703C080911A
:10016000B0008F7D8093B0000895CF93DF93E8EBCC
:10017000F0E08491E4EAF0E0D491E0E9F0E0C491A9
:10018000CC2391F081110E948C00EC2FF0E0EE0F57
:10019000FF1FE458FF4FA591B491EC91ED2381E04E
:1001A00090E021F480E002C080E090E0DF91CF9108
:1001B00008951F93CF93DF93282F30E0F901E25584
:1001C000FF4F8491F901E656FF4FD491F901EA57A8
:1001D000FF4FC491CC23C1F0162F81110E948C00D7
:1001E000EC2FF0E0EE0FFF1FEE58FF4FA591B491FA
:1001F0009FB7F894111104C08C91D095D82302C0F8
:10020000EC91DE2BDC939FBFDF91CF911F9108957E
:10021000CF93DF9390E0FC01E656FF4F2491FC0161
:10022000EA57FF4F8491882361F190E0880F991F6E
:10023000FC01E859FF4FC591D491FC01EE58FF4FE6
:10024000A591B491611109C09FB7F8948881209558
:1002500082238883EC912E230BC0623061F49FB718
:10026000F8948881322F309583238883EC912E2B4C
:100270002C939FBF06C08FB7F894E8812E2B28835C
:100280008FBFDF91CF9108953FB7F8948091050219
:1002900090910602A0910702B091080226B5A89B92
:1002A00005C02F3F19F00196A11DB11D3FBFBA2F08
:1002B000A92F982F8827820F911DA11DB11DBC0168
:1002C000CD0142E0660F771F881F991F4A95D1F72D
:1002D00008958F929F92AF92BF92CF92DF92EF924A
:1002E000FF926B017C010E9444014B015C01C1142F
:1002F000D104E104F104F1F00E944401DC01CB01DE
:1003000088199909AA09BB09883E9340A105B1053E
:1003100070F321E0C21AD108E108F10888EE880ED6
:1003200083E0981EA11CB11CC114D104E104F104A6
:1003300019F7DDCFFF90EF90DF90CF90BF90AF9097
:100340009F908F900895CF92DF92EF92FF920F933C
:100350001F93CF93DF936C017A018B01C0E0D0E053
:10036000CE15DF0581F0D8016D918D01D601ED919B
:10037000FC910190F081E02DC6010995892B11F0C7
:100380002196EECF7E01C701DF91CF911F910F9192
:10039000FF90EF90DF90CF900895089580E090E077
:1003A0000895FC01538D448D252F30E0842F90E07B
:1003B000821B930B541710F0CF9608950197089560
:1003C000FC01918D828D981761F0828DDF01A80F5D
:1003D000B11D5D968C91928D9F5F9F73928F90E07F
:1003E00008958FEF9FEF0895FC01918D828D9817EE
:1003F00031F0828DE80FF11D858D90E008958FEF2B
:100400009FEF0895FC01918D228D892F90E0805CF3
:100410009F4F821B91098F739927089589E092E07D
:100420000E94020221E0892B09F420E0822F089526
:10043000FC01848DDF01A80FB11DA35ABF4F2C9181
:10044000848D90E001968F739927848FA689B78950
:100450002C93A089B1898C91837080648C93938D47
:10046000848D981306C00288F389E02D80818F7DEA
:1004700080830895EF92FF920F931F93CF93DF93A2
:10048000EC0181E0888F9B8D8C8D981305C0E889E5
:10049000F989808185FD26C0F62E0B8D10E00F5F57
:1004A0001F4F0F731127E02E8C8DE8120CC00FB672
:1004B00007FCFACFE889F989808185FFF5CFCE0165
:1004C0000E941802F1CF8B8DFE01E80FF11DE35A57
:1004D000FF4FF0829FB7F8940B8FEA89FB898081E8
:1004E00080620AC09FB7F894EE89FF896083E8892B
:1004F000F98980818370806480839FBF81E090E070
:10050000DF91CF911F910F91FF90EF900895CF93BE
:10051000DF93EC01888D8823C9F0EA89FB8980810B
:1005200085FD05C0A889B9898C9186FD0FC00FB6DD
:1005300007FCF5CF808185FFF2CFA889B9898C911E
:1005400085FFEDCFCE010E941802E7CFDF91CF915A
:10055000089580E090E0892B29F00E940E0281111D
:100560000C94000008958F929F92AF92BF92CF9209
:10057000DF92EF92FF92CF93DF93FB013496AAEDC7
:10058000B1E0EC01249621E030E024173507CCF4EB
:10059000CD90DD90ED90FD9089909990A990B990C3
:1005A000C814D904EA04FB047CF081909190A190D6
:1005B000B1908C149D04AE04BF0434F02F5F3F4F04
:1005C000E4CF81E090E002C080E090E0DF91CF9145
:1005D000FF90EF90DF90CF90BF90AF909F908F9063
:1005E0000895009769F0FC0101900020E9F7319728
:1005F000AF01481B590BBC0189E092E00C94A301A8
:1006000080E090E00895CF93DF930E94F102EC0127
:100610008CE291E00E94F1028C0F9D1FDF91CF913F
:1006200008958F929F92AF92BF920F931F93CF9393
:10063000DF93CDB7DEB7A1970FB6F894DEBF0FBE3C
:10064000CDBF19A2423008F44AE08E010F5D1F4F62
:10065000842E912CA12CB12CA50194010E94EA06B4
:10066000E62FB901CA0101501109EA3014F4E05D26
:1006700001C0E95CD801EC93232B242B252B61F7D7
:10068000C8010E94F102A1960FB6F894DEBF0FBE1A
:10069000CDBFDF91CF911F910F91BF90AF909F90F1
:1006A0008F900895CF92DF92EF92FF92CF93DF93D6
:1006B00097FF1BC06B017C016DE289E092E00E9414
:1006C0003A02EC0166277727CB016C197D098E0968
:1006D0009F094AE00E9411038C0F9D1FDF91CF916B
:1006E000FF90EF90DF90CF9008954AE0DF91CF9197
:1006F000FF90EF90DF90CF900C9411030E941207AF
:100700001F920F920FB60F9211242F933F938F9346
:100710009F93AF93BF938091010290910202A091A9
:100720000302B09104023091000223E0230F2D3721
:1007300020F40196A11DB11D05C026E8230F0296E5
:10074000A11DB11D2093000280930102909302022B
:10075000A0930302B09304028091050290910602D7
:10076000A0910702B09108020196A11DB11D8093CE
:10077000050290930602A0930702B0930802BF916E
:10078000AF919F918F913F912F910F900FBE0F903E
:100790001F9018951F920F920FB60F9211242F934E
:1007A0003F934F935F936F937F938F939F93AF93F9
:1007B000BF93EF93FF9389E092E00E941802FF91AC
:1007C000EF91BF91AF919F918F917F916F915F91C9
:1007D0004F913F912F910F900FBE0F901F90189542
:1007E0001F920F920FB60F9211242F938F939F9306
:1007F000EF93FF93E0911902F0911A028081E0914A
:100800001F02F091200282FD12C09081809122028D
:100810008F5F8F7320912302821751F0E0912202A3
:10082000F0E0E75FFD4F958F8093220201C0808149
:10083000FF91EF919F918F912F910F900FBE0F908D
:100840001F901895789484B5826084BD84B58160CA
:1008500084BD85B5826085BD85B5816085BD80918B
:100860006E00816080936E00109281008091810003
:1008700082608093810080918100816080938100FB
:10088000809180008160809380008091B1008460BD
:100890008093B1008091B00081608093B00080911E
:1008A0007A00846080937A0080917A0082608093DD
:1008B0007A0080917A00816080937A0080917A003A
:1008C000806880937A001092C100E0911902F09143
:1008D0001A0282E08083E0911502F09116021082E4
:1008E000E0911702F09118028FEC808310922102A0
:1008F000E0911D02F0911E0286E08083E0911B02D0
:10090000F0911C02808180618083E0911B02F09154
:100910001C02808188608083E0911B02F0911C02A0
:10092000808180688083E0911B02F0911C028081AD
:100930008F7D808361E08DE00E94080160E08AE0A5
:100940000E94080161E087E00E94080160ED77E005
:1009500080E090E00E94690161E087E00E94D90098
:1009600001E010E08091FE019091FF01892B09F4D4
:10097000FCC00E94B500892B09F0FCC18FE291E018
:100980000E9403032FB7F894609101027091020254
:1009900080910302909104022FBF6093FA0170933B
:1009A000FB018093FC019093FD014AE00E9411033A
:1009B0008CE291E00E94F1028091FA019091FB019A
:1009C000A091FC01B091FD014091F6015091F70119
:1009D0006091F8017091F901841B950BA60BB70B80
:1009E000C6EDD1E0FE014481558166817781419356
:1009F00051936193719321E0E23FF207A1F7809355
:100A0000F2019093F301A093F401B093F501699181
:100A10007991899199910E94520380E891E00E9416
:100A2000F10241E0C23ED40791F78EE291E00E94CC
:100A300003034091D4015091D50164E871E08CEA40
:100A400091E00E94B302EC018091FA019091FB01C8
:100A50002091F6013091F701821B930B20918201C6
:100A60003091830121153105A1F4C130D10569F51B
:100A700087E391E00E94030388E491E00E9403036E
:100A800060E087E00E94D900D0938301C093820187
:100A900015C021303105C9F42197B9F487E391E0FD
:100AA0000E9403038AE491E00E94030361E087E06F
:100AB0000E94D900109283011092820166EB73E0CC
:100AC00080E090E00E94690139C040911801509186
:100AD000190181599140452BD1F08532E2E09E0702
:100AE000B0F42115310599F081E591E00E940303EE
:100AF00061E08DE00E94D90066EB73E080E090E059
:100B00000E946901109219011092180117C08532D4
:100B10009240A0F4232B91F083E691E00E9403031E
:100B200060E08DE00E94D90066EB73E080E090E029
:100B30000E94690110931901009318018091FA0134
:100B40009091FB01A091FC01B091FD018093F60111
:100B50009093F701A093F801B093F90162E370E07C
:100B600080E090E00E94690105C10E94B500892BD8
:100B700009F000C1C091D401D091D5018091FA0152
:100B80009091FB01A091FC01B091FD014091F60113
:100B90005091F7016091F8017091F901841B950B58
:100BA000A60BB70B9E01220F331F220F331FF90133
:100BB000E455FE4FAC01BD014C595F4F6F4F7F4F65
:100BC0004083518362837383F901EC57FE4F84564F
:100BD0009109A109B10980839183A283B3832196EE
:100BE000D093D501C093D40143E050E060E071E0C0
:100BF0008CE091E00E94B302892B09F481C0269712
:100C0000C4F11093FF010093FE018FE691E00E9472
:100C100003037CEAC72E71E0D72EE4E8EE2EE1E074
:100C2000FE2EC0E0D0E08091D4019091D5010397D1
:100C3000C817D907D4F4F60161917191819191910E
:100C40006F010E9452038DE791E00E94F102F701CB
:100C500061917191819191917F010E9452038FE77F
:100C600091E00E94F1022196DECF8EE291E00E9497
:100C700003038091D4019091D5019C01220F331F71
:100C8000220F331FF901E455FE4F108211821282A8
:100C90001382F901EC57FE4F1082118212821382E7
:100CA0009C0121503109220F331F220F331FF901FC
:100CB000E455FE4F1082118212821382F901EC5723
:100CC000FE4F10821182128213829C012250310940
:100CD000220F331F220F331FF901E455FE4F1082FC
:100CE000118212821382F901EC57FE4F1082118299
:100CF0001282138203979093D5018093D4013AC056
:100D00002897C4F11093FF010093FE018FE691E054
:100D10000E9403038CEAC82E81E0D82E94E8E92EC5
:100D200091E0F92EC0E0D0E08091D4019091D501FE
:100D30000397C817D907D4F4F60161917191819195
:100D400091916F010E9452038DE791E00E94F102A0
:100D5000F70161917191819191917F010E945203FC
:100D60008FE791E00E94F1022196DECF8EE291E0C2
:100D70000E9403030E94A902F5CDE9E0F2E013828C
:100D8000128288EE93E0A0E0B0E084839583A6838E
:100D9000B7838EE191E09183808385EC90E0958725
:100DA000848784EC90E09787868780EC90E0918B35
:100DB000808B81EC90E0938B828B82EC90E0958B22
:100DC000848B86EC90E0978B868B118E128E138E1F
:100DD000148E0895A1E21A2EAA1BBB1BFD010DC0A3
:100DE000AA1FBB1FEE1FFF1FA217B307E407F507DB
:100DF00020F0A21BB30BE40BF50B661F771F881FB7
:100E0000991F1A9469F760957095809590959B014C
:100E1000AC01BD01CF010895EE0FFF1F0590F491C5
:100E2000E02D099481E090E0F8940C941707F89471
:020E3000FFCFF2
:100E32006400000064000000640000005E01000025
:100E42005E0100005E0100000100000000003A02A5
:100E5200A301D10187020202E001F4010D0A00435D
:100E62004C41505045440050415353574F52442037
:100E7200434F525245435400554E4C4F434B454409
:100E820000544849532053484F554C442042452072
:100E92004F4E0071756965742071756965740050F3
:100EA200617373776F72642053657421002D002C77
:020EB20020001E
:00000001FF
